:04000000AFEF0FF05F
:101F5E0000EE01F0070EEE6AE806FDE10001D3EF98
:101F6E000FF0000E0C6E000E0B6E0BD0F294850E61
:101F7E00D76EED0ED66ED58EF2A4FED7D59E0B4A39
:101F8E000C2A08500B5C0C50800A0A6E0950800A0D
:101F9E000A58D8B01200EAD76C0ED36E160EAF6E7A
:101FAE00B896AC84B89892869398819893829284CE
:101FBE00AC98AC8AAB8EF28EF28C9D98D59CD59A4D
:101FCE00D596D584D592D59081A208D0550EAD6EFA
:101FDE00000E096E040E086EB8EC0FF081B2F4D745
:101FEE000F0EAD6E000E096E040E086EB8EC0FF0FB
:021FFE00EBD71F
:020000040020DA
:08000000FFFFFFFFFFFFFFFF00
:020000040030CA
:0E000000FF091F1E0E8181FF03C003E00340B5
:00000001FF
